{
  "contractName": "CrowdFunding",
  "abi": [
    {
      "constant": true,
      "inputs": [
        {
          "name": "",
          "type": "uint256"
        }
      ],
      "name": "contributions",
      "outputs": [
        {
          "name": "addr",
          "type": "address"
        },
        {
          "name": "amount",
          "type": "uint256"
        }
      ],
      "payable": false,
      "stateMutability": "view",
      "type": "function"
    },
    {
      "constant": true,
      "inputs": [],
      "name": "project",
      "outputs": [
        {
          "name": "addr",
          "type": "address"
        },
        {
          "name": "name",
          "type": "string"
        },
        {
          "name": "website",
          "type": "string"
        },
        {
          "name": "totalRaised",
          "type": "uint256"
        },
        {
          "name": "minimumToRaise",
          "type": "uint256"
        },
        {
          "name": "currentBalance",
          "type": "uint256"
        },
        {
          "name": "deadline",
          "type": "uint256"
        },
        {
          "name": "completeAt",
          "type": "uint256"
        },
        {
          "name": "status",
          "type": "uint8"
        }
      ],
      "payable": false,
      "stateMutability": "view",
      "type": "function"
    },
    {
      "inputs": [
        {
          "name": "_owner",
          "type": "address"
        },
        {
          "name": "_minimumToRaise",
          "type": "uint256"
        },
        {
          "name": "_durationProjects",
          "type": "uint256"
        },
        {
          "name": "_name",
          "type": "string"
        },
        {
          "name": "_website",
          "type": "string"
        }
      ],
      "payable": true,
      "stateMutability": "payable",
      "type": "constructor"
    },
    {
      "payable": true,
      "stateMutability": "payable",
      "type": "fallback"
    },
    {
      "anonymous": false,
      "inputs": [
        {
          "indexed": false,
          "name": "owner",
          "type": "address"
        },
        {
          "indexed": false,
          "name": "name",
          "type": "string"
        },
        {
          "indexed": false,
          "name": "website",
          "type": "string"
        },
        {
          "indexed": false,
          "name": "minimumToRaise",
          "type": "uint256"
        },
        {
          "indexed": false,
          "name": "duration",
          "type": "uint256"
        }
      ],
      "name": "LogProjectInitialized",
      "type": "event"
    },
    {
      "anonymous": false,
      "inputs": [
        {
          "indexed": false,
          "name": "addr",
          "type": "address"
        },
        {
          "indexed": false,
          "name": "name",
          "type": "string"
        },
        {
          "indexed": false,
          "name": "url",
          "type": "string"
        },
        {
          "indexed": false,
          "name": "initialized",
          "type": "bool"
        }
      ],
      "name": "ProjectSubmitted",
      "type": "event"
    },
    {
      "anonymous": false,
      "inputs": [
        {
          "indexed": false,
          "name": "addr",
          "type": "address"
        },
        {
          "indexed": false,
          "name": "amount",
          "type": "uint256"
        },
        {
          "indexed": false,
          "name": "currentTotal",
          "type": "uint256"
        }
      ],
      "name": "LogFundingReceived",
      "type": "event"
    },
    {
      "anonymous": false,
      "inputs": [
        {
          "indexed": false,
          "name": "projectAddr",
          "type": "address"
        },
        {
          "indexed": false,
          "name": "amount",
          "type": "uint256"
        },
        {
          "indexed": false,
          "name": "status",
          "type": "uint8"
        }
      ],
      "name": "LogProjectPaid",
      "type": "event"
    },
    {
      "anonymous": false,
      "inputs": [
        {
          "indexed": false,
          "name": "_to",
          "type": "address"
        },
        {
          "indexed": false,
          "name": "amount",
          "type": "uint256"
        }
      ],
      "name": "Refund",
      "type": "event"
    },
    {
      "anonymous": false,
      "inputs": [
        {
          "indexed": false,
          "name": "addr",
          "type": "address"
        },
        {
          "indexed": false,
          "name": "amount",
          "type": "uint256"
        }
      ],
      "name": "LogErr",
      "type": "event"
    },
    {
      "constant": false,
      "inputs": [],
      "name": "fund",
      "outputs": [],
      "payable": true,
      "stateMutability": "payable",
      "type": "function"
    },
    {
      "constant": false,
      "inputs": [],
      "name": "checkGoalReached",
      "outputs": [],
      "payable": false,
      "stateMutability": "nonpayable",
      "type": "function"
    },
    {
      "constant": false,
      "inputs": [],
      "name": "destroy",
      "outputs": [],
      "payable": false,
      "stateMutability": "nonpayable",
      "type": "function"
    }
  ],
  "bytecode": "0x608060405260405162001186380380620011868339810180604052810190808051906020019092919080519060200190929190805190602001909291908051820192919060200180518201929190505050600080670de0b6b3a7640000860291506001850242019050610120604051908101604052808873ffffffffffffffffffffffffffffffffffffffff16815260200185815260200184815260200160008152602001838152602001600081526020018281526020016000815260200160006002811115620000cc57fe5b8152506000808201518160000160006101000a81548173ffffffffffffffffffffffffffffffffffffffff021916908373ffffffffffffffffffffffffffffffffffffffff16021790555060208201518160010190805190602001906200013592919062000315565b5060408201518160020190805190602001906200015492919062000315565b50606082015181600301556080820151816004015560a0820151816005015560c0820151816006015560e082015181600701556101008201518160080160006101000a81548160ff02191690836002811115620001ad57fe5b02179055509050507fabab73bd3ef74c3ded7105359a301c9a5f6206e571a87a2e7a60a2750f583d828785858989604051808673ffffffffffffffffffffffffffffffffffffffff1673ffffffffffffffffffffffffffffffffffffffff1681526020018060200180602001858152602001848152602001838103835287818151815260200191508051906020019080838360005b838110156200025f57808201518184015260208101905062000242565b50505050905090810190601f1680156200028d5780820380516001836020036101000a031916815260200191505b50838103825286818151815260200191508051906020019080838360005b83811015620002c8578082015181840152602081019050620002ab565b50505050905090810190601f168015620002f65780820380516001836020036101000a031916815260200191505b5097505050505050505060405180910390a150505050505050620003c4565b828054600181600116156101000203166002900490600052602060002090601f016020900481019282601f106200035857805160ff191683800117855562000389565b8280016001018555821562000389579182015b82811115620003885782518255916020019190600101906200036b565b5b5090506200039891906200039c565b5090565b620003c191905b80821115620003bd576000816000905550600101620003a3565b5090565b90565b610db280620003d46000396000f30060806040526004361061006d576000357c0100000000000000000000000000000000000000000000000000000000900463ffffffff16806301cb3b20146100725780631cee07001461008957806383197ef0146100fd578063b60d428814610114578063f60ca60d1461011e575b600080fd5b34801561007e57600080fd5b50610087610285565b005b34801561009557600080fd5b506100b460048036038101908080359060200190929190505050610852565b604051808373ffffffffffffffffffffffffffffffffffffffff1673ffffffffffffffffffffffffffffffffffffffff1681526020018281526020019250505060405180910390f35b34801561010957600080fd5b506101126108a5565b005b61011c610a03565b005b34801561012a57600080fd5b50610133610bed565b604051808a73ffffffffffffffffffffffffffffffffffffffff1673ffffffffffffffffffffffffffffffffffffffff168152602001806020018060200189815260200188815260200187815260200186815260200185815260200184600281111561019b57fe5b60ff16815260200183810383528b818151815260200191508051906020019080838360005b838110156101db5780820151818401526020810190506101c0565b50505050905090810190601f1680156102085780820380516001836020036101000a031916815260200191505b5083810382528a818151815260200191508051906020019080838360005b83811015610241578082015181840152602081019050610226565b50505050905090810190601f16801561026e5780820380516001836020036101000a031916815260200191505b509b50505050505050505050505060405180910390f35b6000803373ffffffffffffffffffffffffffffffffffffffff166000800160009054906101000a900473ffffffffffffffffffffffffffffffffffffffff1673ffffffffffffffffffffffffffffffffffffffff1614151561034f576040517f08c379a00000000000000000000000000000000000000000000000000000000081526004018080602001828103825260138152602001807f4f6e6c79204f776e657220416c6c6f7765642e0000000000000000000000000081525060200191505060405180910390fd5b600060060154421015151561036357600080fd5b60028081111561036f57fe5b600060080160009054906101000a900460ff16600281111561038d57fe5b141580156103c45750600160028111156103a357fe5b600060080160009054906101000a900460ff1660028111156103c157fe5b14155b15156103cf57600080fd5b6000600401546000600301541115610539576000800160009054906101000a900473ffffffffffffffffffffffffffffffffffffffff1673ffffffffffffffffffffffffffffffffffffffff166108fc6000600301549081150290604051600060405180830381858888f19350505050158015610450573d6000803e3d6000fd5b506002600060080160006101000a81548160ff0219169083600281111561047357fe5b02179055507f9cc33d71b12b5ff3b126758c80e6a6566f47d38ac175d1bb895fb315bff0116b6000800160009054906101000a900473ffffffffffffffffffffffffffffffffffffffff16600060030154600060080160009054906101000a900460ff16604051808473ffffffffffffffffffffffffffffffffffffffff1673ffffffffffffffffffffffffffffffffffffffff16815260200183815260200182600281111561051f57fe5b60ff168152602001935050505060405180910390a1610844565b6001600060080160006101000a81548160ff0219169083600281111561055b57fe5b0217905550600091505b6009805490508210156108435760098281548110151561058157fe5b906000526020600020906002020160010154905060006009838154811015156105a657fe5b9060005260206000209060020201600101819055506009828154811015156105ca57fe5b906000526020600020906002020160000160009054906101000a900473ffffffffffffffffffffffffffffffffffffffff1673ffffffffffffffffffffffffffffffffffffffff166108fc60098481548110151561062457fe5b9060005260206000209060020201600101549081150290604051600060405180830381858888f19350505050151561074b578060098381548110151561066657fe5b9060005260206000209060020201600101819055507f9e89955b94ef5eca43d512b4ef6e56015aaa4f482341fcd6cab601752083baba6009838154811015156106ab57fe5b906000526020600020906002020160000160009054906101000a900473ffffffffffffffffffffffffffffffffffffffff166009848154811015156106ec57fe5b906000526020600020906002020160010154604051808373ffffffffffffffffffffffffffffffffffffffff1673ffffffffffffffffffffffffffffffffffffffff1681526020018281526020019250505060405180910390a1600080fd5b806000600301600082825403925050819055506000600301546000600501819055507fbb28353e4598c3b9199101a66e0989549b659a59a54d2c27fbb183f1932c8e6d60098381548110151561079d57fe5b906000526020600020906002020160000160009054906101000a900473ffffffffffffffffffffffffffffffffffffffff166009848154811015156107de57fe5b906000526020600020906002020160010154604051808373ffffffffffffffffffffffffffffffffffffffff1673ffffffffffffffffffffffffffffffffffffffff1681526020018281526020019250505060405180910390a1816001019150610565565b5b426000600701819055505050565b60098181548110151561086157fe5b90600052602060002090600202016000915090508060000160009054906101000a900473ffffffffffffffffffffffffffffffffffffffff16908060010154905082565b3373ffffffffffffffffffffffffffffffffffffffff166000800160009054906101000a900473ffffffffffffffffffffffffffffffffffffffff1673ffffffffffffffffffffffffffffffffffffffff1614151561096c576040517f08c379a00000000000000000000000000000000000000000000000000000000081526004018080602001828103825260138152602001807f4f6e6c79204f776e657220416c6c6f7765642e0000000000000000000000000081525060200191505060405180910390fd5b6001600281111561097957fe5b600060080160009054906101000a900460ff16600281111561099757fe5b14806109ca57506002808111156109aa57fe5b600060080160009054906101000a900460ff1660028111156109c857fe5b145b80156109de57504261546060006007015401105b1515156109ea57600080fd5b3373ffffffffffffffffffffffffffffffffffffffff16ff5b6000806002811115610a1157fe5b600060080160009054906101000a900460ff166002811115610a2f57fe5b141515610aa4576040517f08c379a000000000000000000000000000000000000000000000000000000000815260040180806020018281038252601c8152602001807f4f6e6c79206d6174636865642073746174757320616c6c6f7765642e0000000081525060200191505060405180910390fd5b600960408051908101604052803373ffffffffffffffffffffffffffffffffffffffff168152602001348152509080600181540180825580915050906001820390600052602060002090600202016000909192909190915060008201518160000160006101000a81548173ffffffffffffffffffffffffffffffffffffffff021916908373ffffffffffffffffffffffffffffffffffffffff16021790555060208201518160010155505050346000600301600082825401925050819055506000600301546000600501819055507f304e48bb03eae5e9bf3575d270648664895983e116a51773a65e9f3341b3b40e3334600060030154604051808473ffffffffffffffffffffffffffffffffffffffff1673ffffffffffffffffffffffffffffffffffffffff168152602001838152602001828152602001935050505060405180910390a150565b60008060000160009054906101000a900473ffffffffffffffffffffffffffffffffffffffff1690806001018054600181600116156101000203166002900480601f016020809104026020016040519081016040528092919081815260200182805460018160011615610100020316600290048015610cad5780601f10610c8257610100808354040283529160200191610cad565b820191906000526020600020905b815481529060010190602001808311610c9057829003601f168201915b505050505090806002018054600181600116156101000203166002900480601f016020809104026020016040519081016040528092919081815260200182805460018160011615610100020316600290048015610d4b5780601f10610d2057610100808354040283529160200191610d4b565b820191906000526020600020905b815481529060010190602001808311610d2e57829003601f168201915b5050505050908060030154908060040154908060050154908060060154908060070154908060080160009054906101000a900460ff169050895600a165627a7a72305820b6b26cccad05240bf9ca023d21dc4382168cb53d2b059bf912662329c89162fc0029",
  "source": "pragma solidity ^0.4.24;\r\n\r\ncontract CrowdFunding {\r\n\r\n    Project public project;\r\n    Contribution[] public contributions;\r\n    //Campaign Status\r\n    enum Status {\r\n        Fundraising,\r\n        Fail,\r\n        Successful\r\n    }\r\n    event LogProjectInitialized (\r\n        address owner,\r\n        string name,\r\n        string website,\r\n        uint minimumToRaise, \r\n        uint duration\r\n    );\r\n    event ProjectSubmitted(address addr, string name, string url, bool initialized);\r\n    event LogFundingReceived(address addr, uint amount, uint currentTotal);\r\n    event LogProjectPaid(address projectAddr, uint amount, Status status);\r\n    event Refund(address _to, uint amount);\r\n    event LogErr (address addr, uint amount);\r\n    //campaign contributors\r\n    struct Contribution {\r\n        address addr;\r\n        uint amount;\r\n    }\r\n    //define project\r\n    struct Project {\r\n        address addr;\r\n        string name;\r\n        string website;\r\n        uint totalRaised;\r\n        uint minimumToRaise; \r\n        uint currentBalance;\r\n        uint deadline;\r\n        uint completeAt;\r\n        Status status;\r\n    }\r\n    //initialized project\r\n    constructor (address _owner, uint _minimumToRaise, uint _durationProjects, \r\n        string _name, string _website) public payable {  \r\n        uint minimumToRaise = _minimumToRaise * 1 ether; //convert to wei\r\n        uint deadlineProjects = now + _durationProjects* 1 seconds;\r\n        project = Project(_owner, _name, _website, 0, minimumToRaise, 0, deadlineProjects, 0, Status.Fundraising);\r\n        emit LogProjectInitialized(\r\n            _owner,\r\n            _name,\r\n            _website,\r\n            _minimumToRaise,\r\n            _durationProjects);\r\n    }\r\n    //check if project is at the required stage\r\n    modifier atStage(Status _status) {\r\n        require(project.status == _status,\"Only matched status allowed.\" );\r\n        _;\r\n    }\r\n    //check if msg.sender is project owner\r\n    modifier onlyOwner() {\r\n        require(project.addr == msg.sender,\"Only Owner Allowed.\" );\r\n        _;\r\n    }\r\n    //check if project pass the deadline\r\n    modifier afterDeadline() {\r\n        require(now >= project.deadline);\r\n        _;\r\n    }\r\n    //Wait for 6 hour after campaign completed before allowing contract destruction\r\n    modifier atEndOfCampain() {\r\n        require(!((project.status == Status.Fail || project.status == Status.Successful) && project.completeAt + 6 hours < now));\r\n        _;\r\n    }\r\n    function () public payable {\r\n       revert();  \r\n    }\r\n\r\n    /* The default fallback function is called whenever anyone sends funds to a contract */\r\n    function fund() public atStage(Status.Fundraising) payable {\r\n        contributions.push(\r\n            Contribution({\r\n                addr: msg.sender,\r\n                amount: msg.value\r\n                })\r\n            );\r\n        project.totalRaised += msg.value;\r\n        project.currentBalance = project.totalRaised;\r\n        emit LogFundingReceived(msg.sender, msg.value, project.totalRaised);\r\n    }\r\n    //checks if the goal or time limit has been reached and ends the campaign\r\n    function checkGoalReached() public onlyOwner afterDeadline {\r\n        require(project.status != Status.Successful && project.status!=Status.Fail);\r\n        if (project.totalRaised > project.minimumToRaise){\r\n            project.addr.transfer(project.totalRaised);\r\n            project.status = Status.Successful;\r\n            emit LogProjectPaid(project.addr, project.totalRaised, project.status);\r\n        } else {\r\n            project.status = Status.Fail;\r\n            for (uint i = 0; i < contributions.length; ++i) {\r\n              uint amountToRefund = contributions[i].amount;\r\n              contributions[i].amount = 0;\r\n              if(!contributions[i].addr.send(contributions[i].amount)) {\r\n                contributions[i].amount = amountToRefund;\r\n                emit LogErr(contributions[i].addr, contributions[i].amount);\r\n                revert();\r\n              } else{\r\n                project.totalRaised -= amountToRefund;\r\n                project.currentBalance = project.totalRaised;\r\n                emit Refund(contributions[i].addr, contributions[i].amount);\r\n              }\r\n            }  \r\n        }\r\n        project.completeAt = now;\r\n    }\r\n    function destroy() public onlyOwner atEndOfCampain {\r\n        selfdestruct(msg.sender);\r\n    }\r\n}",
  "sourcePath": "D:\\projects\\devdoc\\eth-dapp\\CrowdFunding\\contracts\\CrowdFunding.sol",
  "compiler": {
    "name": "solc",
    "version": "0.4.24+commit.e67f0147.Emscripten.clang"
  },
  "schemaVersion": "2.0.1",
  "updatedAt": "2018-11-14T05:53:00.014Z"
}